{
  "_format": "hh-sol-artifact-1",
  "contractName": "Vote",
  "sourceName": "contracts/Vote.sol",
  "abi": [
    {
      "anonymous": false,
      "inputs": [
        {
          "indexed": true,
          "internalType": "address",
          "name": "previousOwner",
          "type": "address"
        },
        {
          "indexed": true,
          "internalType": "address",
          "name": "newOwner",
          "type": "address"
        }
      ],
      "name": "OwnershipTransferred",
      "type": "event"
    },
    {
      "anonymous": false,
      "inputs": [
        {
          "indexed": false,
          "internalType": "address",
          "name": "account",
          "type": "address"
        }
      ],
      "name": "Paused",
      "type": "event"
    },
    {
      "anonymous": false,
      "inputs": [
        {
          "indexed": true,
          "internalType": "string",
          "name": "partyName",
          "type": "string"
        },
        {
          "indexed": true,
          "internalType": "string",
          "name": "presidentName",
          "type": "string"
        }
      ],
      "name": "PoliticalPartyAdded",
      "type": "event"
    },
    {
      "anonymous": false,
      "inputs": [
        {
          "indexed": false,
          "internalType": "address",
          "name": "account",
          "type": "address"
        }
      ],
      "name": "Unpaused",
      "type": "event"
    },
    {
      "anonymous": false,
      "inputs": [
        {
          "indexed": true,
          "internalType": "address",
          "name": "from",
          "type": "address"
        },
        {
          "indexed": true,
          "internalType": "address",
          "name": "to",
          "type": "address"
        }
      ],
      "name": "userCastedVote",
      "type": "event"
    },
    {
      "anonymous": false,
      "inputs": [
        {
          "indexed": true,
          "internalType": "address",
          "name": "user",
          "type": "address"
        },
        {
          "indexed": true,
          "internalType": "string",
          "name": "partyName",
          "type": "string"
        }
      ],
      "name": "userVoted",
      "type": "event"
    },
    {
      "inputs": [
        {
          "internalType": "string",
          "name": "_partyName",
          "type": "string"
        },
        {
          "internalType": "string",
          "name": "_presidentName",
          "type": "string"
        }
      ],
      "name": "addPoliticalParty",
      "outputs": [],
      "stateMutability": "nonpayable",
      "type": "function"
    },
    {
      "inputs": [
        {
          "internalType": "address",
          "name": "_to",
          "type": "address"
        }
      ],
      "name": "castVote",
      "outputs": [],
      "stateMutability": "nonpayable",
      "type": "function"
    },
    {
      "inputs": [],
      "name": "endDate",
      "outputs": [
        {
          "internalType": "uint256",
          "name": "",
          "type": "uint256"
        }
      ],
      "stateMutability": "view",
      "type": "function"
    },
    {
      "inputs": [],
      "name": "getAllPoliticalParties",
      "outputs": [
        {
          "components": [
            {
              "internalType": "string",
              "name": "partyName",
              "type": "string"
            },
            {
              "internalType": "string",
              "name": "presidentName",
              "type": "string"
            },
            {
              "internalType": "uint256",
              "name": "regestrationDate",
              "type": "uint256"
            },
            {
              "internalType": "uint256",
              "name": "votes",
              "type": "uint256"
            }
          ],
          "internalType": "struct Vote.PoliticalPary[]",
          "name": "",
          "type": "tuple[]"
        }
      ],
      "stateMutability": "view",
      "type": "function"
    },
    {
      "inputs": [],
      "name": "getTime",
      "outputs": [
        {
          "internalType": "uint256",
          "name": "",
          "type": "uint256"
        }
      ],
      "stateMutability": "view",
      "type": "function"
    },
    {
      "inputs": [
        {
          "internalType": "address",
          "name": "_user",
          "type": "address"
        }
      ],
      "name": "getUserVotes",
      "outputs": [
        {
          "internalType": "int256",
          "name": "",
          "type": "int256"
        }
      ],
      "stateMutability": "view",
      "type": "function"
    },
    {
      "inputs": [],
      "name": "owner",
      "outputs": [
        {
          "internalType": "address",
          "name": "",
          "type": "address"
        }
      ],
      "stateMutability": "view",
      "type": "function"
    },
    {
      "inputs": [],
      "name": "pause",
      "outputs": [],
      "stateMutability": "nonpayable",
      "type": "function"
    },
    {
      "inputs": [],
      "name": "paused",
      "outputs": [
        {
          "internalType": "bool",
          "name": "",
          "type": "bool"
        }
      ],
      "stateMutability": "view",
      "type": "function"
    },
    {
      "inputs": [
        {
          "internalType": "uint256",
          "name": "",
          "type": "uint256"
        }
      ],
      "name": "politicalParties",
      "outputs": [
        {
          "internalType": "string",
          "name": "partyName",
          "type": "string"
        },
        {
          "internalType": "string",
          "name": "presidentName",
          "type": "string"
        },
        {
          "internalType": "uint256",
          "name": "regestrationDate",
          "type": "uint256"
        },
        {
          "internalType": "uint256",
          "name": "votes",
          "type": "uint256"
        }
      ],
      "stateMutability": "view",
      "type": "function"
    },
    {
      "inputs": [],
      "name": "renounceOwnership",
      "outputs": [],
      "stateMutability": "nonpayable",
      "type": "function"
    },
    {
      "inputs": [
        {
          "internalType": "uint256",
          "name": "_endDate",
          "type": "uint256"
        }
      ],
      "name": "setEndDate",
      "outputs": [],
      "stateMutability": "nonpayable",
      "type": "function"
    },
    {
      "inputs": [
        {
          "internalType": "uint256",
          "name": "_startDate",
          "type": "uint256"
        }
      ],
      "name": "setStartDate",
      "outputs": [],
      "stateMutability": "nonpayable",
      "type": "function"
    },
    {
      "inputs": [],
      "name": "startDate",
      "outputs": [
        {
          "internalType": "uint256",
          "name": "",
          "type": "uint256"
        }
      ],
      "stateMutability": "view",
      "type": "function"
    },
    {
      "inputs": [
        {
          "internalType": "address",
          "name": "newOwner",
          "type": "address"
        }
      ],
      "name": "transferOwnership",
      "outputs": [],
      "stateMutability": "nonpayable",
      "type": "function"
    },
    {
      "inputs": [],
      "name": "unpause",
      "outputs": [],
      "stateMutability": "nonpayable",
      "type": "function"
    },
    {
      "inputs": [
        {
          "internalType": "address",
          "name": "",
          "type": "address"
        }
      ],
      "name": "userVotes",
      "outputs": [
        {
          "internalType": "int256",
          "name": "",
          "type": "int256"
        }
      ],
      "stateMutability": "view",
      "type": "function"
    },
    {
      "inputs": [
        {
          "internalType": "uint256",
          "name": "_politicalParty",
          "type": "uint256"
        }
      ],
      "name": "vote",
      "outputs": [],
      "stateMutability": "nonpayable",
      "type": "function"
    }
  ],
  "bytecode": "0x608060405234801561001057600080fd5b5061002d61002261005360201b60201c565b61005b60201b60201c565b60008060146101000a81548160ff0219169083151502179055506001808190555061011f565b600033905090565b60008060009054906101000a900473ffffffffffffffffffffffffffffffffffffffff169050816000806101000a81548173ffffffffffffffffffffffffffffffffffffffff021916908373ffffffffffffffffffffffffffffffffffffffff1602179055508173ffffffffffffffffffffffffffffffffffffffff168173ffffffffffffffffffffffffffffffffffffffff167f8be0079c531659141344cd1fd0a4f28419497f9722a3daafe3b4186f6b6457e060405160405180910390a35050565b611ff88061012e6000396000f3fe608060405234801561001057600080fd5b50600436106101165760003560e01c806380f22892116100a2578063950c782211610071578063950c782214610284578063ae1b792a146102b4578063c24a0f8b146102d0578063c9d2b726146102ee578063f2fde38b1461030c57610116565b806380f228921461020d57806382d95df5146102405780638456cb591461025c5780638da5cb5b1461026657610116565b806353358fc4116100e957806353358fc41461017b578063557ed1ba146101975780635c975abb146101b557806362190150146101d3578063715018a61461020357610116565b80630121b93f1461011b5780630b97bc86146101375780633784f000146101555780633f4ba83a14610171575b600080fd5b61013560048036038101906101309190611570565b610328565b005b61013f61062e565b60405161014c9190611ac2565b60405180910390f35b61016f600480360381019061016a9190611570565b610634565b005b6101796106ba565b005b610195600480360381019061019091906114db565b610740565b005b61019f610912565b6040516101ac9190611ac2565b60405180910390f35b6101bd61091a565b6040516101ca9190611959565b60405180910390f35b6101ed60048036038101906101e891906114db565b610930565b6040516101fa9190611974565b60405180910390f35b61020b610948565b005b61022760048036038101906102229190611570565b6109d0565b604051610237949392919061198f565b60405180910390f35b61025a60048036038101906102559190611570565b610b20565b005b610264610ba6565b005b61026e610c2c565b60405161027b919061191c565b60405180910390f35b61029e600480360381019061029991906114db565b610c55565b6040516102ab9190611974565b60405180910390f35b6102ce60048036038101906102c99190611504565b610c9e565b005b6102d8610e17565b6040516102e59190611ac2565b60405180910390f35b6102f6610e1d565b6040516103039190611937565b60405180910390f35b610326600480360381019061032191906114db565b610fb4565b005b61033061091a565b15610370576040517f08c379a000000000000000000000000000000000000000000000000000000000815260040161036790611a62565b60405180910390fd5b600260015414156103b6576040517f08c379a00000000000000000000000000000000000000000000000000000000081526004016103ad90611aa2565b60405180910390fd5b6002600181905550600060025414806103d157506000600354145b806103dd575060025442105b806103e9575060035442115b15610448576103f7426110ac565b6104026002546110ac565b61040d6003546110ac565b6040517f08c379a000000000000000000000000000000000000000000000000000000000815260040161043f90611a22565b60405180910390fd5b6000600560003373ffffffffffffffffffffffffffffffffffffffff1673ffffffffffffffffffffffffffffffffffffffff1681526020019081526020016000205413156104cb576040517f08c379a00000000000000000000000000000000000000000000000000000000081526004016104c290611a42565b60405180910390fd5b60048181548110610505577f4e487b7100000000000000000000000000000000000000000000000000000000600052603260045260246000fd5b9060005260206000209060040201600301600081548092919061052790611d42565b9190505550600560003373ffffffffffffffffffffffffffffffffffffffff1673ffffffffffffffffffffffffffffffffffffffff168152602001908152602001600020600081548092919061057c90611cf9565b9190505550600481815481106105bb577f4e487b7100000000000000000000000000000000000000000000000000000000600052603260045260246000fd5b90600052602060002090600402016000016040516105d99190611905565b60405180910390203373ffffffffffffffffffffffffffffffffffffffff167f0412623437ebf6f3725cf4e00d72d94f3c56f4ace18442b458eb938a36998c1b60405160405180910390a36001808190555050565b60025481565b61063c611145565b73ffffffffffffffffffffffffffffffffffffffff1661065a610c2c565b73ffffffffffffffffffffffffffffffffffffffff16146106b0576040517f08c379a00000000000000000000000000000000000000000000000000000000081526004016106a790611a82565b60405180910390fd5b8060038190555050565b6106c2611145565b73ffffffffffffffffffffffffffffffffffffffff166106e0610c2c565b73ffffffffffffffffffffffffffffffffffffffff1614610736576040517f08c379a000000000000000000000000000000000000000000000000000000000815260040161072d90611a82565b60405180910390fd5b61073e61114d565b565b61074861091a565b15610788576040517f08c379a000000000000000000000000000000000000000000000000000000000815260040161077f90611a62565b60405180910390fd5b6000600560003373ffffffffffffffffffffffffffffffffffffffff1673ffffffffffffffffffffffffffffffffffffffff16815260200190815260200160002054131561080b576040517f08c379a000000000000000000000000000000000000000000000000000000000815260040161080290611a42565b60405180910390fd5b600560003373ffffffffffffffffffffffffffffffffffffffff1673ffffffffffffffffffffffffffffffffffffffff168152602001908152602001600020600081548092919061085b90611cf9565b9190505550600560008273ffffffffffffffffffffffffffffffffffffffff1673ffffffffffffffffffffffffffffffffffffffff16815260200190815260200160002060008154809291906108b090611c4d565b91905055508073ffffffffffffffffffffffffffffffffffffffff163373ffffffffffffffffffffffffffffffffffffffff167f11ea384596777e10ea0962deec304d596994b9f0fd6e307d907539bbf91e17c460405160405180910390a350565b600042905090565b60008060149054906101000a900460ff16905090565b60056020528060005260406000206000915090505481565b610950611145565b73ffffffffffffffffffffffffffffffffffffffff1661096e610c2c565b73ffffffffffffffffffffffffffffffffffffffff16146109c4576040517f08c379a00000000000000000000000000000000000000000000000000000000081526004016109bb90611a82565b60405180910390fd5b6109ce60006111ee565b565b600481815481106109e057600080fd5b9060005260206000209060040201600091509050806000018054610a0390611c96565b80601f0160208091040260200160405190810160405280929190818152602001828054610a2f90611c96565b8015610a7c5780601f10610a5157610100808354040283529160200191610a7c565b820191906000526020600020905b815481529060010190602001808311610a5f57829003601f168201915b505050505090806001018054610a9190611c96565b80601f0160208091040260200160405190810160405280929190818152602001828054610abd90611c96565b8015610b0a5780601f10610adf57610100808354040283529160200191610b0a565b820191906000526020600020905b815481529060010190602001808311610aed57829003601f168201915b5050505050908060020154908060030154905084565b610b28611145565b73ffffffffffffffffffffffffffffffffffffffff16610b46610c2c565b73ffffffffffffffffffffffffffffffffffffffff1614610b9c576040517f08c379a0000000000000000000000000000000000000000000000000000000008152600401610b9390611a82565b60405180910390fd5b8060028190555050565b610bae611145565b73ffffffffffffffffffffffffffffffffffffffff16610bcc610c2c565b73ffffffffffffffffffffffffffffffffffffffff1614610c22576040517f08c379a0000000000000000000000000000000000000000000000000000000008152600401610c1990611a82565b60405180910390fd5b610c2a6112b2565b565b60008060009054906101000a900473ffffffffffffffffffffffffffffffffffffffff16905090565b6000600560008373ffffffffffffffffffffffffffffffffffffffff1673ffffffffffffffffffffffffffffffffffffffff168152602001908152602001600020549050919050565b610ca6611145565b73ffffffffffffffffffffffffffffffffffffffff16610cc4610c2c565b73ffffffffffffffffffffffffffffffffffffffff1614610d1a576040517f08c379a0000000000000000000000000000000000000000000000000000000008152600401610d1190611a82565b60405180910390fd5b610d2261137e565b8281600001819052508181602001819052504281604001818152505060048190806001815401808255809150506001900390600052602060002090600402016000909190919091506000820151816000019080519060200190610d869291906113a6565b506020820151816001019080519060200190610da39291906113a6565b506040820151816002015560608201518160030155505081604051610dc891906118ee565b604051809103902083604051610dde91906118ee565b60405180910390207f499dac008d6571e66d0a64c5a95079173bcae9263633624d7ca5e9f1abbe2a0360405160405180910390a3505050565b60035481565b60606004805480602002602001604051908101604052809291908181526020016000905b82821015610fab5783829060005260206000209060040201604051806080016040529081600082018054610e7490611c96565b80601f0160208091040260200160405190810160405280929190818152602001828054610ea090611c96565b8015610eed5780601f10610ec257610100808354040283529160200191610eed565b820191906000526020600020905b815481529060010190602001808311610ed057829003601f168201915b50505050508152602001600182018054610f0690611c96565b80601f0160208091040260200160405190810160405280929190818152602001828054610f3290611c96565b8015610f7f5780601f10610f5457610100808354040283529160200191610f7f565b820191906000526020600020905b815481529060010190602001808311610f6257829003601f168201915b505050505081526020016002820154815260200160038201548152505081526020019060010190610e41565b50505050905090565b610fbc611145565b73ffffffffffffffffffffffffffffffffffffffff16610fda610c2c565b73ffffffffffffffffffffffffffffffffffffffff1614611030576040517f08c379a000000000000000000000000000000000000000000000000000000000815260040161102790611a82565b60405180910390fd5b600073ffffffffffffffffffffffffffffffffffffffff168173ffffffffffffffffffffffffffffffffffffffff1614156110a0576040517f08c379a000000000000000000000000000000000000000000000000000000000815260040161109790611a02565b60405180910390fd5b6110a9816111ee565b50565b611142816040516024016110c09190611ac2565b6040516020818303038152906040527ff5b1bba9000000000000000000000000000000000000000000000000000000007bffffffffffffffffffffffffffffffffffffffffffffffffffffffff19166020820180517bffffffffffffffffffffffffffffffffffffffffffffffffffffffff8381831617835250505050611355565b50565b600033905090565b61115561091a565b611194576040517f08c379a000000000000000000000000000000000000000000000000000000000815260040161118b906119e2565b60405180910390fd5b60008060146101000a81548160ff0219169083151502179055507f5db9ee0a495bf2e6ff9c91a7834c1ba4fdd244a5e8aa4e537bd38aeae4b073aa6111d7611145565b6040516111e4919061191c565b60405180910390a1565b60008060009054906101000a900473ffffffffffffffffffffffffffffffffffffffff169050816000806101000a81548173ffffffffffffffffffffffffffffffffffffffff021916908373ffffffffffffffffffffffffffffffffffffffff1602179055508173ffffffffffffffffffffffffffffffffffffffff168173ffffffffffffffffffffffffffffffffffffffff167f8be0079c531659141344cd1fd0a4f28419497f9722a3daafe3b4186f6b6457e060405160405180910390a35050565b6112ba61091a565b156112fa576040517f08c379a00000000000000000000000000000000000000000000000000000000081526004016112f190611a62565b60405180910390fd5b6001600060146101000a81548160ff0219169083151502179055507f62e78cea01bee320cd4e420270b5ea74000d11b0c9f74754ebdbfc544b05a25861133e611145565b60405161134b919061191c565b60405180910390a1565b60008151905060006a636f6e736f6c652e6c6f679050602083016000808483855afa5050505050565b6040518060800160405280606081526020016060815260200160008152602001600081525090565b8280546113b290611c96565b90600052602060002090601f0160209004810192826113d4576000855561141b565b82601f106113ed57805160ff191683800117855561141b565b8280016001018555821561141b579182015b8281111561141a5782518255916020019190600101906113ff565b5b509050611428919061142c565b5090565b5b8082111561144557600081600090555060010161142d565b5090565b600061145c61145784611b02565b611add565b90508281526020810184848401111561147457600080fd5b61147f848285611c0b565b509392505050565b60008135905061149681611f94565b92915050565b600082601f8301126114ad57600080fd5b81356114bd848260208601611449565b91505092915050565b6000813590506114d581611fab565b92915050565b6000602082840312156114ed57600080fd5b60006114fb84828501611487565b91505092915050565b6000806040838503121561151757600080fd5b600083013567ffffffffffffffff81111561153157600080fd5b61153d8582860161149c565b925050602083013567ffffffffffffffff81111561155a57600080fd5b6115668582860161149c565b9150509250929050565b60006020828403121561158257600080fd5b6000611590848285016114c6565b91505092915050565b60006115a58383611866565b905092915050565b6115b681611bb9565b82525050565b60006115c782611b58565b6115d18185611b7b565b9350836020820285016115e385611b33565b8060005b8581101561161f57848403895281516116008582611599565b945061160b83611b6e565b925060208a019950506001810190506115e7565b50829750879550505050505092915050565b61163a81611bcb565b82525050565b61164981611bd7565b82525050565b600061165a82611b63565b6116648185611b8c565b9350611674818560208601611c1a565b61167d81611e18565b840191505092915050565b600061169382611b63565b61169d8185611b9d565b93506116ad818560208601611c1a565b6116b681611e18565b840191505092915050565b60006116cc82611b63565b6116d68185611bae565b93506116e6818560208601611c1a565b80840191505092915050565b600081546116ff81611c96565b6117098186611bae565b94506001821660008114611724576001811461173557611768565b60ff19831686528186019350611768565b61173e85611b43565b60005b8381101561176057815481890152600182019150602081019050611741565b838801955050505b50505092915050565b600061177e601483611b9d565b915061178982611e29565b602082019050919050565b60006117a1602683611b9d565b91506117ac82611e52565b604082019050919050565b60006117c4602883611b9d565b91506117cf82611ea1565b604082019050919050565b60006117e7601183611b9d565b91506117f282611ef0565b602082019050919050565b600061180a601083611b9d565b915061181582611f19565b602082019050919050565b600061182d602083611b9d565b915061183882611f42565b602082019050919050565b6000611850601f83611b9d565b915061185b82611f6b565b602082019050919050565b60006080830160008301518482036000860152611883828261164f565b9150506020830151848203602086015261189d828261164f565b91505060408301516118b260408601826118d0565b5060608301516118c560608601826118d0565b508091505092915050565b6118d981611c01565b82525050565b6118e881611c01565b82525050565b60006118fa82846116c1565b915081905092915050565b600061191182846116f2565b915081905092915050565b600060208201905061193160008301846115ad565b92915050565b6000602082019050818103600083015261195181846115bc565b905092915050565b600060208201905061196e6000830184611631565b92915050565b60006020820190506119896000830184611640565b92915050565b600060808201905081810360008301526119a98187611688565b905081810360208301526119bd8186611688565b90506119cc60408301856118df565b6119d960608301846118df565b95945050505050565b600060208201905081810360008301526119fb81611771565b9050919050565b60006020820190508181036000830152611a1b81611794565b9050919050565b60006020820190508181036000830152611a3b816117b7565b9050919050565b60006020820190508181036000830152611a5b816117da565b9050919050565b60006020820190508181036000830152611a7b816117fd565b9050919050565b60006020820190508181036000830152611a9b81611820565b9050919050565b60006020820190508181036000830152611abb81611843565b9050919050565b6000602082019050611ad760008301846118df565b92915050565b6000611ae7611af8565b9050611af38282611cc8565b919050565b6000604051905090565b600067ffffffffffffffff821115611b1d57611b1c611de9565b5b611b2682611e18565b9050602081019050919050565b6000819050602082019050919050565b60008190508160005260206000209050919050565b600081519050919050565b600081519050919050565b6000602082019050919050565b600082825260208201905092915050565b600082825260208201905092915050565b600082825260208201905092915050565b600081905092915050565b6000611bc482611be1565b9050919050565b60008115159050919050565b6000819050919050565b600073ffffffffffffffffffffffffffffffffffffffff82169050919050565b6000819050919050565b82818337600083830152505050565b60005b83811015611c38578082015181840152602081019050611c1d565b83811115611c47576000848401525b50505050565b6000611c5882611bd7565b91507f8000000000000000000000000000000000000000000000000000000000000000821415611c8b57611c8a611d8b565b5b600182039050919050565b60006002820490506001821680611cae57607f821691505b60208210811415611cc257611cc1611dba565b5b50919050565b611cd182611e18565b810181811067ffffffffffffffff82111715611cf057611cef611de9565b5b80604052505050565b6000611d0482611bd7565b91507f7fffffffffffffffffffffffffffffffffffffffffffffffffffffffffffffff821415611d3757611d36611d8b565b5b600182019050919050565b6000611d4d82611c01565b91507fffffffffffffffffffffffffffffffffffffffffffffffffffffffffffffffff821415611d8057611d7f611d8b565b5b600182019050919050565b7f4e487b7100000000000000000000000000000000000000000000000000000000600052601160045260246000fd5b7f4e487b7100000000000000000000000000000000000000000000000000000000600052602260045260246000fd5b7f4e487b7100000000000000000000000000000000000000000000000000000000600052604160045260246000fd5b6000601f19601f8301169050919050565b7f5061757361626c653a206e6f7420706175736564000000000000000000000000600082015250565b7f4f776e61626c653a206e6577206f776e657220697320746865207a65726f206160008201527f6464726573730000000000000000000000000000000000000000000000000000602082015250565b7f566f74696e67206469646e277420737461727420796574206f7220616c72656160008201527f647920656e646564000000000000000000000000000000000000000000000000602082015250565b7f596f7520616c726561647920766f746564000000000000000000000000000000600082015250565b7f5061757361626c653a2070617573656400000000000000000000000000000000600082015250565b7f4f776e61626c653a2063616c6c6572206973206e6f7420746865206f776e6572600082015250565b7f5265656e7472616e637947756172643a207265656e7472616e742063616c6c00600082015250565b611f9d81611bb9565b8114611fa857600080fd5b50565b611fb481611c01565b8114611fbf57600080fd5b5056fea26469706673582212201c38053d7f908797868bfb3a68650d75e844d1ed2534396bbe4869a47035d81e64736f6c63430008040033",
  "linkReferences": {},
  "deployedLinkReferences": {}
}