{
  "_format": "hh-sol-artifact-1",
  "contractName": "Vote",
  "sourceName": "contracts/Vote.sol",
  "abi": [
    {
      "anonymous": false,
      "inputs": [
        {
          "indexed": true,
          "internalType": "address",
          "name": "previousOwner",
          "type": "address"
        },
        {
          "indexed": true,
          "internalType": "address",
          "name": "newOwner",
          "type": "address"
        }
      ],
      "name": "OwnershipTransferred",
      "type": "event"
    },
    {
      "anonymous": false,
      "inputs": [
        {
          "indexed": false,
          "internalType": "address",
          "name": "account",
          "type": "address"
        }
      ],
      "name": "Paused",
      "type": "event"
    },
    {
      "anonymous": false,
      "inputs": [
        {
          "indexed": true,
          "internalType": "string",
          "name": "partyName",
          "type": "string"
        },
        {
          "indexed": true,
          "internalType": "string",
          "name": "presidentName",
          "type": "string"
        }
      ],
      "name": "PoliticalPartyAdded",
      "type": "event"
    },
    {
      "anonymous": false,
      "inputs": [
        {
          "indexed": false,
          "internalType": "address",
          "name": "account",
          "type": "address"
        }
      ],
      "name": "Unpaused",
      "type": "event"
    },
    {
      "anonymous": false,
      "inputs": [
        {
          "indexed": true,
          "internalType": "address",
          "name": "from",
          "type": "address"
        },
        {
          "indexed": true,
          "internalType": "address",
          "name": "to",
          "type": "address"
        }
      ],
      "name": "userCastedVote",
      "type": "event"
    },
    {
      "anonymous": false,
      "inputs": [
        {
          "indexed": true,
          "internalType": "address",
          "name": "user",
          "type": "address"
        },
        {
          "indexed": true,
          "internalType": "string",
          "name": "partyName",
          "type": "string"
        }
      ],
      "name": "userVoted",
      "type": "event"
    },
    {
      "inputs": [
        {
          "internalType": "string",
          "name": "_partyName",
          "type": "string"
        },
        {
          "internalType": "string",
          "name": "_presidentName",
          "type": "string"
        }
      ],
      "name": "addPoliticalParty",
      "outputs": [],
      "stateMutability": "nonpayable",
      "type": "function"
    },
    {
      "inputs": [
        {
          "internalType": "address",
          "name": "_to",
          "type": "address"
        }
      ],
      "name": "castVote",
      "outputs": [],
      "stateMutability": "nonpayable",
      "type": "function"
    },
    {
      "inputs": [],
      "name": "endDate",
      "outputs": [
        {
          "internalType": "uint256",
          "name": "",
          "type": "uint256"
        }
      ],
      "stateMutability": "view",
      "type": "function"
    },
    {
      "inputs": [],
      "name": "getAllPoliticalParties",
      "outputs": [
        {
          "components": [
            {
              "internalType": "string",
              "name": "partyName",
              "type": "string"
            },
            {
              "internalType": "string",
              "name": "presidentName",
              "type": "string"
            },
            {
              "internalType": "uint256",
              "name": "regestrationDate",
              "type": "uint256"
            },
            {
              "internalType": "uint256",
              "name": "votes",
              "type": "uint256"
            }
          ],
          "internalType": "struct Vote.PoliticalPary[]",
          "name": "",
          "type": "tuple[]"
        }
      ],
      "stateMutability": "view",
      "type": "function"
    },
    {
      "inputs": [],
      "name": "getTime",
      "outputs": [
        {
          "internalType": "uint256",
          "name": "",
          "type": "uint256"
        }
      ],
      "stateMutability": "view",
      "type": "function"
    },
    {
      "inputs": [
        {
          "internalType": "address",
          "name": "_user",
          "type": "address"
        }
      ],
      "name": "getUserVotes",
      "outputs": [
        {
          "internalType": "int256",
          "name": "",
          "type": "int256"
        }
      ],
      "stateMutability": "view",
      "type": "function"
    },
    {
      "inputs": [],
      "name": "owner",
      "outputs": [
        {
          "internalType": "address",
          "name": "",
          "type": "address"
        }
      ],
      "stateMutability": "view",
      "type": "function"
    },
    {
      "inputs": [],
      "name": "pause",
      "outputs": [],
      "stateMutability": "nonpayable",
      "type": "function"
    },
    {
      "inputs": [],
      "name": "paused",
      "outputs": [
        {
          "internalType": "bool",
          "name": "",
          "type": "bool"
        }
      ],
      "stateMutability": "view",
      "type": "function"
    },
    {
      "inputs": [
        {
          "internalType": "uint256",
          "name": "",
          "type": "uint256"
        }
      ],
      "name": "politicalParties",
      "outputs": [
        {
          "internalType": "string",
          "name": "partyName",
          "type": "string"
        },
        {
          "internalType": "string",
          "name": "presidentName",
          "type": "string"
        },
        {
          "internalType": "uint256",
          "name": "regestrationDate",
          "type": "uint256"
        },
        {
          "internalType": "uint256",
          "name": "votes",
          "type": "uint256"
        }
      ],
      "stateMutability": "view",
      "type": "function"
    },
    {
      "inputs": [],
      "name": "renounceOwnership",
      "outputs": [],
      "stateMutability": "nonpayable",
      "type": "function"
    },
    {
      "inputs": [],
      "name": "resetUserVotes",
      "outputs": [],
      "stateMutability": "nonpayable",
      "type": "function"
    },
    {
      "inputs": [
        {
          "internalType": "uint256",
          "name": "_endDate",
          "type": "uint256"
        }
      ],
      "name": "setEndDate",
      "outputs": [],
      "stateMutability": "nonpayable",
      "type": "function"
    },
    {
      "inputs": [
        {
          "internalType": "uint256",
          "name": "_startDate",
          "type": "uint256"
        }
      ],
      "name": "setStartDate",
      "outputs": [],
      "stateMutability": "nonpayable",
      "type": "function"
    },
    {
      "inputs": [],
      "name": "startDate",
      "outputs": [
        {
          "internalType": "uint256",
          "name": "",
          "type": "uint256"
        }
      ],
      "stateMutability": "view",
      "type": "function"
    },
    {
      "inputs": [
        {
          "internalType": "address",
          "name": "newOwner",
          "type": "address"
        }
      ],
      "name": "transferOwnership",
      "outputs": [],
      "stateMutability": "nonpayable",
      "type": "function"
    },
    {
      "inputs": [],
      "name": "unpause",
      "outputs": [],
      "stateMutability": "nonpayable",
      "type": "function"
    },
    {
      "inputs": [
        {
          "internalType": "address",
          "name": "",
          "type": "address"
        }
      ],
      "name": "userVotes",
      "outputs": [
        {
          "internalType": "int256",
          "name": "",
          "type": "int256"
        }
      ],
      "stateMutability": "view",
      "type": "function"
    },
    {
      "inputs": [
        {
          "internalType": "uint256",
          "name": "_politicalParty",
          "type": "uint256"
        }
      ],
      "name": "vote",
      "outputs": [],
      "stateMutability": "nonpayable",
      "type": "function"
    }
  ],
  "bytecode": "0x608060405234801561001057600080fd5b5061002d61002261005360201b60201c565b61005b60201b60201c565b60008060146101000a81548160ff0219169083151502179055506001808190555061011f565b600033905090565b60008060009054906101000a900473ffffffffffffffffffffffffffffffffffffffff169050816000806101000a81548173ffffffffffffffffffffffffffffffffffffffff021916908373ffffffffffffffffffffffffffffffffffffffff1602179055508173ffffffffffffffffffffffffffffffffffffffff168173ffffffffffffffffffffffffffffffffffffffff167f8be0079c531659141344cd1fd0a4f28419497f9722a3daafe3b4186f6b6457e060405160405180910390a35050565b612054806200012f6000396000f3fe608060405234801561001057600080fd5b50600436106101215760003560e01c8063715018a6116100ad578063950c782211610071578063950c782214610299578063ae1b792a146102c9578063c24a0f8b146102e5578063c9d2b72614610303578063f2fde38b1461032157610121565b8063715018a61461021857806380f228921461022257806382d95df5146102555780638456cb59146102715780638da5cb5b1461027b57610121565b80633f4ba83a116100f45780633f4ba83a1461018657806353358fc414610190578063557ed1ba146101ac5780635c975abb146101ca57806362190150146101e857610121565b80630121b93f146101265780630b97bc86146101425780630e85b366146101605780633784f0001461016a575b600080fd5b610140600480360381019061013b91906115cc565b61033d565b005b61014a610643565b6040516101579190611b1e565b60405180910390f35b610168610649565b005b610184600480360381019061017f91906115cc565b610690565b005b61018e610716565b005b6101aa60048036038101906101a59190611537565b61079c565b005b6101b461096e565b6040516101c19190611b1e565b60405180910390f35b6101d2610976565b6040516101df91906119b5565b60405180910390f35b61020260048036038101906101fd9190611537565b61098c565b60405161020f91906119d0565b60405180910390f35b6102206109a4565b005b61023c600480360381019061023791906115cc565b610a2c565b60405161024c94939291906119eb565b60405180910390f35b61026f600480360381019061026a91906115cc565b610b7c565b005b610279610c02565b005b610283610c88565b6040516102909190611978565b60405180910390f35b6102b360048036038101906102ae9190611537565b610cb1565b6040516102c091906119d0565b60405180910390f35b6102e360048036038101906102de9190611560565b610cfa565b005b6102ed610e73565b6040516102fa9190611b1e565b60405180910390f35b61030b610e79565b6040516103189190611993565b60405180910390f35b61033b60048036038101906103369190611537565b611010565b005b610345610976565b15610385576040517f08c379a000000000000000000000000000000000000000000000000000000000815260040161037c90611abe565b60405180910390fd5b600260015414156103cb576040517f08c379a00000000000000000000000000000000000000000000000000000000081526004016103c290611afe565b60405180910390fd5b6002600181905550600060025414806103e657506000600354145b806103f2575060025442105b806103fe575060035442115b1561045d5761040c42611108565b610417600254611108565b610422600354611108565b6040517f08c379a000000000000000000000000000000000000000000000000000000000815260040161045490611a7e565b60405180910390fd5b6000600560003373ffffffffffffffffffffffffffffffffffffffff1673ffffffffffffffffffffffffffffffffffffffff1681526020019081526020016000205413156104e0576040517f08c379a00000000000000000000000000000000000000000000000000000000081526004016104d790611a9e565b60405180910390fd5b6004818154811061051a577f4e487b7100000000000000000000000000000000000000000000000000000000600052603260045260246000fd5b9060005260206000209060040201600301600081548092919061053c90611d9e565b9190505550600560003373ffffffffffffffffffffffffffffffffffffffff1673ffffffffffffffffffffffffffffffffffffffff168152602001908152602001600020600081548092919061059190611d55565b9190505550600481815481106105d0577f4e487b7100000000000000000000000000000000000000000000000000000000600052603260045260246000fd5b90600052602060002090600402016000016040516105ee9190611961565b60405180910390203373ffffffffffffffffffffffffffffffffffffffff167f0412623437ebf6f3725cf4e00d72d94f3c56f4ace18442b458eb938a36998c1b60405160405180910390a36001808190555050565b60025481565b6000600560003373ffffffffffffffffffffffffffffffffffffffff1673ffffffffffffffffffffffffffffffffffffffff16815260200190815260200160002081905550565b6106986111a1565b73ffffffffffffffffffffffffffffffffffffffff166106b6610c88565b73ffffffffffffffffffffffffffffffffffffffff161461070c576040517f08c379a000000000000000000000000000000000000000000000000000000000815260040161070390611ade565b60405180910390fd5b8060038190555050565b61071e6111a1565b73ffffffffffffffffffffffffffffffffffffffff1661073c610c88565b73ffffffffffffffffffffffffffffffffffffffff1614610792576040517f08c379a000000000000000000000000000000000000000000000000000000000815260040161078990611ade565b60405180910390fd5b61079a6111a9565b565b6107a4610976565b156107e4576040517f08c379a00000000000000000000000000000000000000000000000000000000081526004016107db90611abe565b60405180910390fd5b6000600560003373ffffffffffffffffffffffffffffffffffffffff1673ffffffffffffffffffffffffffffffffffffffff168152602001908152602001600020541315610867576040517f08c379a000000000000000000000000000000000000000000000000000000000815260040161085e90611a9e565b60405180910390fd5b600560003373ffffffffffffffffffffffffffffffffffffffff1673ffffffffffffffffffffffffffffffffffffffff16815260200190815260200160002060008154809291906108b790611d55565b9190505550600560008273ffffffffffffffffffffffffffffffffffffffff1673ffffffffffffffffffffffffffffffffffffffff168152602001908152602001600020600081548092919061090c90611ca9565b91905055508073ffffffffffffffffffffffffffffffffffffffff163373ffffffffffffffffffffffffffffffffffffffff167f11ea384596777e10ea0962deec304d596994b9f0fd6e307d907539bbf91e17c460405160405180910390a350565b600042905090565b60008060149054906101000a900460ff16905090565b60056020528060005260406000206000915090505481565b6109ac6111a1565b73ffffffffffffffffffffffffffffffffffffffff166109ca610c88565b73ffffffffffffffffffffffffffffffffffffffff1614610a20576040517f08c379a0000000000000000000000000000000000000000000000000000000008152600401610a1790611ade565b60405180910390fd5b610a2a600061124a565b565b60048181548110610a3c57600080fd5b9060005260206000209060040201600091509050806000018054610a5f90611cf2565b80601f0160208091040260200160405190810160405280929190818152602001828054610a8b90611cf2565b8015610ad85780601f10610aad57610100808354040283529160200191610ad8565b820191906000526020600020905b815481529060010190602001808311610abb57829003601f168201915b505050505090806001018054610aed90611cf2565b80601f0160208091040260200160405190810160405280929190818152602001828054610b1990611cf2565b8015610b665780601f10610b3b57610100808354040283529160200191610b66565b820191906000526020600020905b815481529060010190602001808311610b4957829003601f168201915b5050505050908060020154908060030154905084565b610b846111a1565b73ffffffffffffffffffffffffffffffffffffffff16610ba2610c88565b73ffffffffffffffffffffffffffffffffffffffff1614610bf8576040517f08c379a0000000000000000000000000000000000000000000000000000000008152600401610bef90611ade565b60405180910390fd5b8060028190555050565b610c0a6111a1565b73ffffffffffffffffffffffffffffffffffffffff16610c28610c88565b73ffffffffffffffffffffffffffffffffffffffff1614610c7e576040517f08c379a0000000000000000000000000000000000000000000000000000000008152600401610c7590611ade565b60405180910390fd5b610c8661130e565b565b60008060009054906101000a900473ffffffffffffffffffffffffffffffffffffffff16905090565b6000600560008373ffffffffffffffffffffffffffffffffffffffff1673ffffffffffffffffffffffffffffffffffffffff168152602001908152602001600020549050919050565b610d026111a1565b73ffffffffffffffffffffffffffffffffffffffff16610d20610c88565b73ffffffffffffffffffffffffffffffffffffffff1614610d76576040517f08c379a0000000000000000000000000000000000000000000000000000000008152600401610d6d90611ade565b60405180910390fd5b610d7e6113da565b8281600001819052508181602001819052504281604001818152505060048190806001815401808255809150506001900390600052602060002090600402016000909190919091506000820151816000019080519060200190610de2929190611402565b506020820151816001019080519060200190610dff929190611402565b506040820151816002015560608201518160030155505081604051610e24919061194a565b604051809103902083604051610e3a919061194a565b60405180910390207f499dac008d6571e66d0a64c5a95079173bcae9263633624d7ca5e9f1abbe2a0360405160405180910390a3505050565b60035481565b60606004805480602002602001604051908101604052809291908181526020016000905b828210156110075783829060005260206000209060040201604051806080016040529081600082018054610ed090611cf2565b80601f0160208091040260200160405190810160405280929190818152602001828054610efc90611cf2565b8015610f495780601f10610f1e57610100808354040283529160200191610f49565b820191906000526020600020905b815481529060010190602001808311610f2c57829003601f168201915b50505050508152602001600182018054610f6290611cf2565b80601f0160208091040260200160405190810160405280929190818152602001828054610f8e90611cf2565b8015610fdb5780601f10610fb057610100808354040283529160200191610fdb565b820191906000526020600020905b815481529060010190602001808311610fbe57829003601f168201915b505050505081526020016002820154815260200160038201548152505081526020019060010190610e9d565b50505050905090565b6110186111a1565b73ffffffffffffffffffffffffffffffffffffffff16611036610c88565b73ffffffffffffffffffffffffffffffffffffffff161461108c576040517f08c379a000000000000000000000000000000000000000000000000000000000815260040161108390611ade565b60405180910390fd5b600073ffffffffffffffffffffffffffffffffffffffff168173ffffffffffffffffffffffffffffffffffffffff1614156110fc576040517f08c379a00000000000000000000000000000000000000000000000000000000081526004016110f390611a5e565b60405180910390fd5b6111058161124a565b50565b61119e8160405160240161111c9190611b1e565b6040516020818303038152906040527ff5b1bba9000000000000000000000000000000000000000000000000000000007bffffffffffffffffffffffffffffffffffffffffffffffffffffffff19166020820180517bffffffffffffffffffffffffffffffffffffffffffffffffffffffff83818316178352505050506113b1565b50565b600033905090565b6111b1610976565b6111f0576040517f08c379a00000000000000000000000000000000000000000000000000000000081526004016111e790611a3e565b60405180910390fd5b60008060146101000a81548160ff0219169083151502179055507f5db9ee0a495bf2e6ff9c91a7834c1ba4fdd244a5e8aa4e537bd38aeae4b073aa6112336111a1565b6040516112409190611978565b60405180910390a1565b60008060009054906101000a900473ffffffffffffffffffffffffffffffffffffffff169050816000806101000a81548173ffffffffffffffffffffffffffffffffffffffff021916908373ffffffffffffffffffffffffffffffffffffffff1602179055508173ffffffffffffffffffffffffffffffffffffffff168173ffffffffffffffffffffffffffffffffffffffff167f8be0079c531659141344cd1fd0a4f28419497f9722a3daafe3b4186f6b6457e060405160405180910390a35050565b611316610976565b15611356576040517f08c379a000000000000000000000000000000000000000000000000000000000815260040161134d90611abe565b60405180910390fd5b6001600060146101000a81548160ff0219169083151502179055507f62e78cea01bee320cd4e420270b5ea74000d11b0c9f74754ebdbfc544b05a25861139a6111a1565b6040516113a79190611978565b60405180910390a1565b60008151905060006a636f6e736f6c652e6c6f679050602083016000808483855afa5050505050565b6040518060800160405280606081526020016060815260200160008152602001600081525090565b82805461140e90611cf2565b90600052602060002090601f0160209004810192826114305760008555611477565b82601f1061144957805160ff1916838001178555611477565b82800160010185558215611477579182015b8281111561147657825182559160200191906001019061145b565b5b5090506114849190611488565b5090565b5b808211156114a1576000816000905550600101611489565b5090565b60006114b86114b384611b5e565b611b39565b9050828152602081018484840111156114d057600080fd5b6114db848285611c67565b509392505050565b6000813590506114f281611ff0565b92915050565b600082601f83011261150957600080fd5b81356115198482602086016114a5565b91505092915050565b60008135905061153181612007565b92915050565b60006020828403121561154957600080fd5b6000611557848285016114e3565b91505092915050565b6000806040838503121561157357600080fd5b600083013567ffffffffffffffff81111561158d57600080fd5b611599858286016114f8565b925050602083013567ffffffffffffffff8111156115b657600080fd5b6115c2858286016114f8565b9150509250929050565b6000602082840312156115de57600080fd5b60006115ec84828501611522565b91505092915050565b600061160183836118c2565b905092915050565b61161281611c15565b82525050565b600061162382611bb4565b61162d8185611bd7565b93508360208202850161163f85611b8f565b8060005b8581101561167b578484038952815161165c85826115f5565b945061166783611bca565b925060208a01995050600181019050611643565b50829750879550505050505092915050565b61169681611c27565b82525050565b6116a581611c33565b82525050565b60006116b682611bbf565b6116c08185611be8565b93506116d0818560208601611c76565b6116d981611e74565b840191505092915050565b60006116ef82611bbf565b6116f98185611bf9565b9350611709818560208601611c76565b61171281611e74565b840191505092915050565b600061172882611bbf565b6117328185611c0a565b9350611742818560208601611c76565b80840191505092915050565b6000815461175b81611cf2565b6117658186611c0a565b945060018216600081146117805760018114611791576117c4565b60ff198316865281860193506117c4565b61179a85611b9f565b60005b838110156117bc5781548189015260018201915060208101905061179d565b838801955050505b50505092915050565b60006117da601483611bf9565b91506117e582611e85565b602082019050919050565b60006117fd602683611bf9565b915061180882611eae565b604082019050919050565b6000611820602883611bf9565b915061182b82611efd565b604082019050919050565b6000611843601183611bf9565b915061184e82611f4c565b602082019050919050565b6000611866601083611bf9565b915061187182611f75565b602082019050919050565b6000611889602083611bf9565b915061189482611f9e565b602082019050919050565b60006118ac601f83611bf9565b91506118b782611fc7565b602082019050919050565b600060808301600083015184820360008601526118df82826116ab565b915050602083015184820360208601526118f982826116ab565b915050604083015161190e604086018261192c565b506060830151611921606086018261192c565b508091505092915050565b61193581611c5d565b82525050565b61194481611c5d565b82525050565b6000611956828461171d565b915081905092915050565b600061196d828461174e565b915081905092915050565b600060208201905061198d6000830184611609565b92915050565b600060208201905081810360008301526119ad8184611618565b905092915050565b60006020820190506119ca600083018461168d565b92915050565b60006020820190506119e5600083018461169c565b92915050565b60006080820190508181036000830152611a0581876116e4565b90508181036020830152611a1981866116e4565b9050611a28604083018561193b565b611a35606083018461193b565b95945050505050565b60006020820190508181036000830152611a57816117cd565b9050919050565b60006020820190508181036000830152611a77816117f0565b9050919050565b60006020820190508181036000830152611a9781611813565b9050919050565b60006020820190508181036000830152611ab781611836565b9050919050565b60006020820190508181036000830152611ad781611859565b9050919050565b60006020820190508181036000830152611af78161187c565b9050919050565b60006020820190508181036000830152611b178161189f565b9050919050565b6000602082019050611b33600083018461193b565b92915050565b6000611b43611b54565b9050611b4f8282611d24565b919050565b6000604051905090565b600067ffffffffffffffff821115611b7957611b78611e45565b5b611b8282611e74565b9050602081019050919050565b6000819050602082019050919050565b60008190508160005260206000209050919050565b600081519050919050565b600081519050919050565b6000602082019050919050565b600082825260208201905092915050565b600082825260208201905092915050565b600082825260208201905092915050565b600081905092915050565b6000611c2082611c3d565b9050919050565b60008115159050919050565b6000819050919050565b600073ffffffffffffffffffffffffffffffffffffffff82169050919050565b6000819050919050565b82818337600083830152505050565b60005b83811015611c94578082015181840152602081019050611c79565b83811115611ca3576000848401525b50505050565b6000611cb482611c33565b91507f8000000000000000000000000000000000000000000000000000000000000000821415611ce757611ce6611de7565b5b600182039050919050565b60006002820490506001821680611d0a57607f821691505b60208210811415611d1e57611d1d611e16565b5b50919050565b611d2d82611e74565b810181811067ffffffffffffffff82111715611d4c57611d4b611e45565b5b80604052505050565b6000611d6082611c33565b91507f7fffffffffffffffffffffffffffffffffffffffffffffffffffffffffffffff821415611d9357611d92611de7565b5b600182019050919050565b6000611da982611c5d565b91507fffffffffffffffffffffffffffffffffffffffffffffffffffffffffffffffff821415611ddc57611ddb611de7565b5b600182019050919050565b7f4e487b7100000000000000000000000000000000000000000000000000000000600052601160045260246000fd5b7f4e487b7100000000000000000000000000000000000000000000000000000000600052602260045260246000fd5b7f4e487b7100000000000000000000000000000000000000000000000000000000600052604160045260246000fd5b6000601f19601f8301169050919050565b7f5061757361626c653a206e6f7420706175736564000000000000000000000000600082015250565b7f4f776e61626c653a206e6577206f776e657220697320746865207a65726f206160008201527f6464726573730000000000000000000000000000000000000000000000000000602082015250565b7f566f74696e67206469646e277420737461727420796574206f7220616c72656160008201527f647920656e646564000000000000000000000000000000000000000000000000602082015250565b7f596f7520616c726561647920766f746564000000000000000000000000000000600082015250565b7f5061757361626c653a2070617573656400000000000000000000000000000000600082015250565b7f4f776e61626c653a2063616c6c6572206973206e6f7420746865206f776e6572600082015250565b7f5265656e7472616e637947756172643a207265656e7472616e742063616c6c00600082015250565b611ff981611c15565b811461200457600080fd5b50565b61201081611c5d565b811461201b57600080fd5b5056fea26469706673582212208f7f38bb05cb44838e7dc5cb59e8d946bd0b8b5277ebafec9e86c5b40cefb06364736f6c63430008040033",
  "linkReferences": {},
  "deployedLinkReferences": {}
}